:10000000F8FF002011040000CB1F0000CB1F0000F0
:10001000CB1F0000CB1F0000CB1F0000CB1F000038
:10002000CB1F0000CB1F0000CB1F0000CB1F000028
:10003000CB1F0000CB1F0000CB1F0000CB1F000018
:1000400055330000CB1F0000CB1F0000CB1F00006A
:10005000CB1F0000CB1F0000CB1F0000CB1F0000F8
:10006000CB1F0000CB1F0000CB1F0000CB1F0000E8
:10007000CB1F0000CB1F0000CB1F0000CB1F0000D8
:10008000CB1F0000CB1F0000CB1F0000CB1F0000C8
:10009000CB1F0000CB1F0000CB1F0000CB1F0000B8
:1000A000CB1F0000CB1F0000CB1F0000CB1F0000A8
:1000B000CB1F0000CB1F0000CB1F0000CB1F000098
:1000C000CB1F0000CB1F0000CB1F0000CB1F000088
:1000D000CB1F0000CB1F0000CB1F0000CB1F000078
:1000E000CB1F0000CB1F0000CB1F0000CB1F000068
:1000F000CB1F0000CB1F0000CB1F0000CB1F000058
:10010000CB1F0000CB1F0000CB1F0000C13100003F
:10011000CB1F0000CB1F0000CB1F0000CB1F000037
:10012000CB1F0000CB1F0000CB1F0000CB1F000027
:10013000CB1F0000CB1F0000CB1F0000CB1F000017
:10014000CB1F0000CB1F0000CB1F0000CB1F000007
:1001500061310000CB1F0000CB1F0000CB1F00004F
:10016000CB1F0000CB1F0000CB1F0000CB1F0000E7
:10017000CB1F0000CB1F0000CB1F0000CB1F0000D7
:10018000CB1F0000CB1F0000CB1F0000CB1F0000C7
:10019000CB1F0000CB1F0000CB1F0000CB1F0000B7
:1001A000CB1F0000F1320000CB1F0000CB1F00006E
:1001B000CB1F0000CB1F0000CB1F0000CB1F000097
:1001C000CB1F0000CB1F0000CB1F0000CB1F000087
:1001D000CB1F0000CB1F0000CB1F0000CB1F000077
:1001E000CB1F0000CB1F0000CB1F0000CB1F000067
:10040000FFFFFFFFFFFFFFFFFFFFFFFFFEFFFFFFFD
:1004100062B64FF000004FF000014FF000024FF0C5
:1004200000034FF000044FF000054FF000064FF0BE
:1004300000074FF000084FF000094FF0000A4FF09E
:10044000000B4FF0000C01F09DF9FEE7F8B5040039
:10045000EF23002240F23F11002000F04AFB012070
:100460000500F02D1DDA00200600282E17DA0020E6
:100470000700082F11DA282000FB0540305C80219E
:100480003941084203D0002000F028FB03E04FF67A
:10049000FF7000F023FB7F1CEBE7761CE5E76D1C8B
:1004A000DFE7F1BD80B5012301221A21042000F00D
:1004B00011FC012301221B21042000F00BFC01236D
:1004C00001221C21042000F005FC01230122192136
:1004D000042000F0FFFB012301221821042000F07A
:1004E000F9FB01BD10B50400FFF7DCFFDFF8EC06F7
:1004F000006830F00060DFF8E4160860142000F0B7
:100500004BFCDFF8D806006850F00060DFF8CC162E
:100510000860142000F040FCCB2000F001F93920E5
:1005200000F0EDF92C2000F0EAF9002000F0E7F9E6
:10053000342000F0E4F9022000F0E1F9CF2000F0CF
:10054000EFF8002000F0DBF9C12000F0D8F93020EE
:1005500000F0D5F9E82000F0E3F8852000F0CFF9AD
:10056000002000F0CCF9782000F0C9F9EA2000F072
:10057000D7F8002000F0C3F9002000F0C0F9ED200A
:1005800000F0CEF8642000F0BAF9032000F0B7F9CB
:10059000122000F0B4F9812000F0B1F9F72000F04A
:1005A000BFF8202000F0ABF9C02000F0B9F82320FC
:1005B00000F0A5F9C12000F0B3F8102000F09FF979
:1005C000C52000F0ADF83E2000F099F9282000F099
:1005D00096F9C72000F0A4F8862000F090F93620A4
:1005E00000F09EF8E4B2002C03D0E82000F087F978
:1005F00002E0282000F083F93A2000F091F855201D
:1006000000F07DF9B12000F08BF8002000F077F9C0
:10061000182000F074F9B62000F082F8082000F0ED
:100620006EF9822000F06BF9272000F068F9F220C3
:1006300000F076F8002000F062F9262000F070F853
:10064000012000F05CF9E02000F06AF80F2000F0D3
:1006500056F9312000F053F92B2000F050F90C200E
:1006600000F04DF90E2000F04AF9082000F047F99B
:100670004E2000F044F9F12000F041F9372000F05D
:100680003EF9072000F03BF9102000F038F9032074
:1006900000F035F90E2000F032F9092000F02FF9B2
:1006A000002000F02CF9E12000F03AF8002000F0E2
:1006B00026F90E2000F023F9142000F020F9032081
:1006C00000F01DF9112000F01AF9072000F017F9C9
:1006D000312000F014F9C12000F011F9482000F099
:1006E0000EF9082000F00BF90F2000F008F90C209B
:1006F00000F005F9312000F002F9362000F0FFF893
:100700000F2000F0FCF8112000F00AF8142000F08F
:1007100043FB292000F004F82C2000F001F810BD64
:10072000DFF8B814096831F08061DFF8B024116097
:10073000DFF8A814096831F08051DFF8A0241160B7
:10074000C0B2C109C9B2DFF89424126861F35962DA
:10075000DFF888140A60DFF88414096831F08071CA
:10076000DFF878241160DFF87414096851F08071A3
:10077000DFF868241160C0B28109C9B2DFF85C24D7
:10078000126861F35962DFF854140A60DFF84C1400
:10079000096831F08071DFF844241160DFF83C14FF
:1007A000096851F08071DFF834241160C0B241094A
:1007B000C9B2DFF82824126861F35962DFF81C140B
:1007C0000A60DFF81814096831F08071DFF80C2432
:1007D0001160DFF80814096851F08071DFF8FC231C
:1007E0001160C0B20109C9B2DFF8F023126861F3E9
:1007F0005962DFF8E8130A60DFF8E013096831F0A6
:100800008071DFF8D8231160DFF8D013096851F048
:100810008071DFF8C8231160C0B2C108C9B2DFF827
:10082000BC23126861F35962DFF8B0130A60DFF885
:10083000AC13096831F08071DFF8A0231160DFF894
:100840009C13096851F08071DFF890231160C0B2E9
:100850008108C9B2DFF88423126861F35962DFF8B6
:100860007C130A60DFF87413096831F08071DFF8D7
:100870006C231160DFF86413096851F08071DFF8B0
:100880005C231160C0B24108C9B2DFF8502312687E
:1008900061F35962DFF844130A60DFF84013096816
:1008A00031F08071DFF834231160DFF8301309680C
:1008B00051F08071DFF824231160C0B2DFF81C13FF
:1008C000096860F35961DFF814231160DFF80C1335
:1008D000096831F08071DFF804231160DFF8FC1241
:1008E000096851F08071DFF8F4221160DFF8EC1232
:1008F000096851F08061DFF8E42211607047DFF889
:10090000DC12096831F08061DFF8D0221160DFF875
:10091000CC12096851F08051DFF8C0221160C0B2DA
:10092000C109C9B2DFF8B422126861F35962DFF875
:10093000AC120A60DFF8A412096831F08071DFF8A8
:100940009C221160DFF89412096851F08071DFF881
:100950008C221160C0B28109C9B2DFF8802212680E
:1009600061F35962DFF874120A60DFF870120968E7
:1009700031F08071DFF864221160DFF860120968DD
:1009800051F08071DFF854221160C0B24109C9B240
:10099000DFF84822126861F35962DFF840120A60FA
:1009A000DFF83812096831F08071DFF83022116009
:1009B000DFF82812096851F08071DFF820221160F9
:1009C000C0B20109C9B2DFF81422126861F359629A
:1009D000DFF808120A60DFF80412096831F080714C
:1009E000DFF8F8211160DFF8F411096851F0807127
:1009F000DFF8E8211160C0B2C108C9B2DFF8DC211C
:100A0000126861F35962DFF8D4110A60DFF8CC1183
:100A1000096831F08071DFF8C4211160DFF8BC1182
:100A2000096851F08071DFF8B4211160C0B281080B
:100A3000C9B2DFF8A821126861F35962DFF89C118E
:100A40000A60DFF89811096831F08071DFF88C21B5
:100A50001160DFF88811096851F08071DFF87C219E
:100A60001160C0B24108C9B2DFF87021126861F3A9
:100A70005962DFF868110A60DFF86011096831F027
:100A80008071DFF858211160DFF85011096851F0CA
:100A90008071DFF848211160C0B2DFF840110968A9
:100AA00060F35961DFF834211160DFF83011096813
:100AB00031F08071DFF824211160DFF8201109681E
:100AC00051F08071DFF814211160DFF8101109680E
:100AD00051F08061DFF804211160704710B5040007
:100AE000200AC0B2FFF70BFF2000C0B2FFF707FFDC
:100AF00010BDF8B504000D0016001F002A20FFF7F6
:100B00000FFE200AC0B2FFF7FAFE2000C0B2FFF7C6
:100B1000F6FE280AC0B2FFF7F2FE2800C0B2FFF7C7
:100B2000EEFE2B20FFF7FCFD300AC0B2FFF7E7FE18
:100B30003000C0B2FFF7E3FE380AC0B2FFF7DFFEB5
:100B40003800C0B2FFF7DBFE2C20FFF7E9FDF1BD56
:100B500070B50400EF23002240F23F110020FFF7A0
:100B6000C8FF00200500F02D0BD200200600B6F5CE
:100B7000A07F04D22000FFF7B1FF761CF7E76D1CC1
:100B8000F1E770BDF8B504000D001600E4B24C2C7E
:100B90000ED1EF23002229002800FFF7AAFF002032
:100BA0000700F02F18D23000FFF798FF7F1CF8E7FE
:100BB000E4B2482C10D12B002A0040F23F11002053
:100BC000FFF797FF00200700B7F5A07F04D23000A1
:100BD000FFF784FF7F1CF7E7F1BD000000F10F4035
:100BE00038B504000D002800002100F0E7F809D214
:100BF0002D212000C0B200F0D8F93348290000F0C0
:100C000003FA0500280000F06BFA642190FBF1F074
:100C10000A2190FBF1F201FB120010F13001C9B280
:100C20002000C0B200F0C1F9280000F059FA0A21F2
:100C300090FBF1F00A2190FBF1F201FB120010F1A0
:100C40003001C9B22000C0B200F0AFF9280000F0B6
:100C500047FA0A2190FBF1F201FB120010F130017A
:100C6000C9B22000C0B200F0A0F92E212000C0B20D
:100C700000F09BF91548290000F0C6F900F030FAA1
:100C80000A2190FBF1F201FB120010F13001C9B210
:100C90002000C0B200F089F90D48290000F0B4F935
:100CA00000F01EFA0A2190FBF1F201FB120010F194
:100CB0003001C9B22000C0B200F077F92021200035
:100CC000C0B200F072F931BD000080BF00002041C9
:100CD0000000C842F8B504000D0016001F00EDB278
:100CE000202D02D2FFB2022F03D32421274800F087
:100CF00019FA2748E4B250F82400EDB2F6B256F4DF
:100D0000807140F82510F00705D5F6B2032E02D009
:100D1000F6B2132E0DD11F48E4B250F824004069FA
:100D20000121A94088431B49E4B251F824104861CD
:100D30002AE01848E4B250F8240040690121A94093
:100D400008431449E4B251F824104861FFB2012F5E
:100D50000DD11048E4B250F8240000680121A940E8
:100D600008430C49E4B251F8241008600CE009482B
:100D7000E4B250F8240000680121A94088430549E5
:100D8000E4B251F824100860F1BD00003C3D0000C1
:100D90004004FF1F2C04FF1F00231900814209D2C9
:100DA000054B1B681A00002A02D000BF521EFAE74A
:100DB000491CF3E770470000282EFF1F4FF0807C8E
:100DC0001CEB400F94BF1CEB410F05E040EA010C07
:100DD0005FEA4C0C01D28842704718BF81427047CD
:100DE000F0B4C0B2002808D0022824D014D30428BC
:100DF0003FD02FD305284BD059E04FF44076714FA8
:100E00003E604FF44076704F3E60704E366856F448
:100E100080666E4F3E604AE04FF440766C4F3E6015
:100E20004FF440766B4F3E60684E366856F400666D
:100E3000664F3E603BE04FF44076674F3E604FF4B4
:100E40004076664F3E60614E366856F480565F4F7E
:100E50003E602CE04FF44076614F3E604FF44076A8
:100E6000604F3E60594E366856F40056574F3E600C
:100E70001DE04FF440765C4F3E604FF440765B4F90
:100E80003E605B4E366856F48066594F3E600EE019
:100E90004FF44076574F3E604FF44076564F3E60D9
:100EA000534E366856F40066514F3E60FFE7534E8E
:100EB000C0B256F82060F67816F0F3064F4FC0B275
:100EC00057F82070FE7000264C4FC0B257F82070C3
:100ED000BE70C0B2002801D1012600E00026C0B2D9
:100EE000012801D1012700E00027F6B2FFB23E43FE
:100EF000002E06D0424E36684FF47A777E43350096
:100F000005E0404E36684FF47A777E4335000E0197
:100F1000B5FBF6F63200394EC0B256F8206036788E
:100F200016F0E006340092B2160A16F01F062643A9
:100F3000324FC0B257F820703E70304EC0B256F8F3
:100F4000206072706E010F01B6FBF7F692B2B6EB3D
:100F500042163300294EC0B256F82060B67A16F019
:100F6000E006340013F01F062643244FC0B257F8A2
:100F70002070BE72214EC0B256F82060F67856F04E
:100F80000C061E4FC0B257F82070FE70F0BC7047C0
:100F90001A49C0B251F8201009798906F8D51749C5
:100FA000C0B251F82000C0797047144AC0B252F85C
:100FB000202012795206F8D5104AC0B252F82020EB
:100FC000D171704718C004401CC0044034800440F4
:100FD0000CB0044010B004400CC0044008C00440F1
:100FE00040B0044044B0044064D0044060D00440A9
:100FF0002880044024D0044020D004403805FF1F3E
:10100000202EFF1F282EFF1FFF2212EAD05C1DBFDB
:1010100012EAD153944593422BE09C44D30780EAD3
:1010200001021A4043EA002043EA0121A1FB0030FB
:10103000410038BF40007CF17F010BDBFE294ADA1A
:101040005B0842EAC15153EA006373F1004C51EB73
:1010500010207047D1F1080CDCF120012FDB5B0878
:1010600010FA01F10B4373F1004120FA0CF05041EA
:10107000704794451CBF02EAD153934280EA0102B3
:1010800002F000421DD0400019D0490017D05BB9D2
:10109000634514D00902B1FA81F39940BCEB030C0B
:1010A000C00140F00040C1E70002B0FA80FC10FA35
:1010B0000CF0B3EB0C0CC90141F00041B6E7100095
:1010C000704740000AD0490008D010F1807F94BFDB
:1010D00011F1807F02E042F0FF407047D04370473B
:1010E0004100090E7F3915D4D1F11F0114D44000FD
:1010F00007D2C00140F00040C84048BF6FF0004038
:101100007047C00140F00040C8404CBF4FF0004065
:10111000404270470020704700424FF0004058BFE7
:10112000C043704770B504460D4600F031F80FF229
:1011300014062A462146304600F008FB00F051F81C
:10114000F7E70000B6CFD1D4B7A2C9FAD4DA257335
:10115000CEC4BCFEB5C4B5DA2564D0D0A3A10AB60E
:10116000CFD1D4CCF5BCFEB2BBB3C9C1A2A3ACC72E
:10117000EBBCECB2E2B4EDCEF3D4ADD2F2A1A30954
:10118000A1AAA1AA20627920D2B0BBF00A0A00006D
:1011900080B50123012203210320FFF79BFD0123DA
:1011A000012204210320FFF795FD012301220521DF
:1011B0000320FFF78FFD0123012206210320FFF703
:1011C00089FD01BD1E4AD2681268012383409A43FB
:1011D000C9B211F0010383401A43194BDB681A604E
:1011E000704710B50123012203210320FFF772FD90
:1011F0000123012204210320FFF76CFD01230122BA
:1012000005210320FFF766FD0123012206210320AB
:10121000FFF760FD03200400E4B2072C0EDA002182
:101220002000C0B2FFF7CEFF6420FFF7B5FD01211B
:101230002000C0B2FFF7C6FF641CEDE710BD000040
:101240002C04FF1F10B50C461168012902D0022999
:1012500004D008E05168C0B2884704E09168087083
:101260009068401C90602068401C206010BD30B425
:10127000002400F8014B002A096812D091B191FBBB
:10128000F3F203FB1211002946BFC94301F13105F6
:1012900001F130051146641C002900F8015BEED114
:1012A00014E019B93021017001240FE0B1FBF3F211
:1012B00003FB12110A2934BF01F1300501F1370592
:1012C0001146641C002900F8015BEFD1204630BCB8
:1012D000704770B5884214461D4614DA0E1A286805
:1012E000012808D0022809D1A96830200870A86810
:1012F000401CA86002E06968302088472068401CD4
:10130000761E2060EBD170BD70B5884214461D4634
:1013100014DA0E1A2868012808D0022809D1A96811
:1013200020200870A868401CA86002E0696820209E
:1013300088472068401C761E2060EBD170BD2DE9E7
:10134000F04F8DB005460020934600908A4605E098
:101350002A4600A9FFF776FF0AF1010A9AF8000071
:10136000002800F0EF81252826D00A28F0D128682F
:10137000012808D0022809D1A9680D200870A868A2
:10138000401CA86002E069680D2088470098401C56
:1013900000902868012808D0022809D1A9680A20ED
:1013A0000870A868401CA86002E069680A208847A5
:1013B0000098401C0090CFE7002701E047F010079D
:1013C0001AF8010F20280ED02328F7D02B2807D099
:1013D0002D2802D0302809D00BE047F00107EFE7B5
:1013E00047F00207ECE747F00407E9E747F0080792
:1013F000E6E7AAF101014FF0000805E008EB8802DA
:1014000000EB4200A0F1300811F8010FA0F130020A
:10141000092AF3D92E2804D111F8010F30380928F0
:10142000FAD9481E82461AF8011F4C2918BF6829AC
:1014300002D06C2918BF82461AF8010F58286AD0CA
:10144000622800F00881632800F04A81642818BFF0
:10145000692811D06E2800F070816F2800F0F680A6
:10146000702800F0FD80732800F04081752800F09E
:10147000FC8078284FD06BE75BF8040B02900A23BE
:10148000012202A903A8FFF7F2FE044603A804EB19
:1014900000090298002848BF2D2606D4B80748BF87
:1014A0002B2602D4780702D52026641C00E00026F3
:1014B00038070CD526B12A4600A93046FFF7C2FEF0
:1014C0002B4600AA41462046FFF703FFF4E0F80749
:1014D0000CD42B4600AA41462046FFF715FF002EEC
:1014E00000F0F4802A4600A93046F6E0002E00F015
:1014F000ED802868012807D0022808D1A868067066
:10150000A868401CA86002E06968304688470098D7
:10151000401C0090DAE05BF8040B019010230022DD
:1015200001A903A8FFF7A3FE044603A804EB0009E2
:10153000002638072ED5F80624D52868012808D0BB
:10154000022809D1A96830200870A868401CA8604A
:1015500002E06968302088470098401C00902868A5
:10156000012808D0022809D1A96878200870A86845
:10157000401CA86002E06968782088470098401CF9
:10158000009001262B4600AA41462046FFF7A1FE07
:10159000444631E0F8072FD4F80648BFA41C2B4678
:1015A00000AA41462046FFF7AFFEF80624D528687A
:1015B000012808D0022809D1A96830200870A8683D
:1015C000401CA86002E06968302088470098401CF1
:1015D00000902868012808D0022809D1A96878203D
:1015E0000870A868401CA86002E0696878208847F5
:1015F0000098401C00900126F80667D5002E65D1A2
:101600002868012808D0022809D1A968302008706C
:10161000A868401CA86002E06968302088470098EC
:10162000401C00902868012808D0022809D1A96828
:1016300078200870A868401CA86002E069687820DB
:1016400088470098401C0090A41C3FE05BF8040B06
:10165000019008230DE05BF8040B0190022308E0E1
:101660005BF8040B0190102303E05BF8040B01907E
:101670000A23002201A903A8FFF7F9FD044603A8E5
:1016800004EB0009380719D5444515DAA8EB040422
:101690002868012808D0022809D1A96830200870DC
:1016A000A868401CA86002E069683020884700985C
:1016B000401C641E0090EBD1444607E0F80705D4B7
:1016C0002B4600AA41462046FFF71EFE99F800006F
:1016D00048B319F801092A4600A9FFF7B3FDF5E759
:1016E0005BF8040B2A4600A9C0B233E65BF8049B02
:1016F000B9F1000F3FF430AE484600F039F8044627
:10170000F8070CD42B4600AA41462046FFF7FCFD03
:1017100005E019F8010B2A4600A9FFF793FD99F897
:1017200000000028F5D1F8077FF516AE2B4600AA79
:1017300041462046FFF7E8FD0EE65BF8040B0099F2
:10174000016009E600980DB0BDE8F08F0EB400B559
:1017500084B00121009105AA04490191014600A825
:10176000FFF7EDFD04B05DF810FB0000AD42000096
:10177000002108B97047491C10F8012B002AFAD142
:101780000846704780B500F08DFA00F0A7FA00F027
:10179000DDFADFF8E803FFF7D9FFDFF8E4030068BC
:1017A000DFF8E0134979491CB0FBF1F00090DFF855
:1017B000D0030068DFF8CC130979491CB0FBF1F3C2
:1017C000DFF8BC030068DFF8BC13C978491CB0FB24
:1017D000F1F2DFF8AC030168DFF8AC03FFF7B6FF06
:1017E000DFF8A8030078400703D5DFF8A403FFF76C
:1017F000ADFFDFF898030078800703D5DFF8940386
:10180000FFF7A4FFDFF884030078C00703D5DFF8F3
:101810008803FFF79BFFDFF884030078000603D5F9
:10182000DFF87C03FFF792FFDFF8700300784006D3
:1018300003D5DFF87003FFF789FFDFF86003007856
:10184000800603D5DFF86003FFF780FFDFF84C0365
:101850000078400703D5DFF85403FFF777FFDFF880
:101860003C030078800703D5DFF84403FFF76EFFE1
:10187000DFF828030078C00703D5DFF83803FFF747
:1018800065FFDFF83403FFF761FFDFF83003DFF8AF
:101890003013884204D0DFF82C03FFF757FF03E032
:1018A000DFF82403FFF752FF00F003F800F07CFAA2
:1018B000FEE780B5DFF814030068000910F00700A8
:1018C00000280BD0022813D00DD3042819D014D32C
:1018D00006281ED019D307281FD022E0DFF8F00217
:1018E000FFF734FF20E0DFF8EC02FFF72FFF1BE0EB
:1018F000DFF8E402FFF72AFF16E0B848FFF726FFFB
:1019000012E0B748FFF722FF0EE0B648FFF71EFFD0
:101910000AE0B548FFF71AFF06E0B448FFF716FFE4
:1019200002E0B348FFF712FFA848006810F00F006C
:10193000022812D0042814D0052816D0062818D062
:1019400007281AD008281CD009281ED00A2820D021
:101950000C2822D00E2824D027E0A648FFF7F6FE58
:1019600026E0A548FFF7F2FE22E0A448FFF7EEFECE
:101970001EE0A348FFF7EAFE1AE0A248FFF7E6FEE2
:1019800016E0A148FFF7E2FE12E0A048FFF7DEFEF6
:101990000EE09F48FFF7DAFE0AE09E48FFF7D6FE0A
:1019A00006E09D48FFF7D2FE02E09C48FFF7CEFE1E
:1019B00086480068000B10F00F00002803D00228B2
:1019C00009D004D30BE09648FFF7C0FE0AE0954823
:1019D000FFF7BCFE06E09448FFF7B8FE02E093482C
:1019E000FFF7B4FE00F06AF891480068000E10F0AE
:1019F0000F00072806D0092808D00B280AD00F2886
:101A00000CD00FE08B48FFF7A1FE0EE08A48FFF7ED
:101A10009DFE0AE08948FFF799FE06E08748FFF738
:101A200095FE02E08648FFF791FE864800680002B6
:101A300003D58548FFF78AFE1EE07D480068000F49
:101A4000002806D0072808D009280AD00F280CD073
:101A50000FE07E48FFF77AFE0EE07D48FFF776FE46
:101A60000AE07C48FFF772FE06E07A48FFF76EFE58
:101A700002E07948FFF76AFE78480068000B10F032
:101A80000F00052806D0072808D008280AD0092802
:101A90000CD00FE07248FFF759FE0EE07148FFF7D7
:101AA00055FE0AE07048FFF751FE06E06F48FFF769
:101AB0004DFE02E06E48FFF749FE01BDF8B5032078
:101AC0006C49087000206C49087000206B49087050
:101AD00000206B49087001206A49087080206A491B
:101AE0000870694800780006FBD568480078040053
:101AF0006748007805006748007806006648007867
:101B00000700FFB20097F6B23300EDB22A00E4B24C
:101B100021006248FFF71AFE032056490870002092
:101B20005549087000205549087004205449087030
:101B300001205449087080205349087052480078A9
:101B40000006FBD551480078040051480078050094
:101B5000504800780600504800780700FFB2009710
:101B6000F6B23300EDB22A00E4B221004C48FFF790
:101B7000EDFDFF2044490870F1BD00008C3E0000DF
:101B8000242EFF1FC404FF1FD03B000000E00740CD
:101B9000604100002C3F00003042000001E007409F
:101BA00070410000B0400000DC3F0000F43F000046
:101BB000483F00003C420000AC3E00000000FF1F18
:101BC000000000004842000054420000248004400D
:101BD0006C420000744200007C420000844200001D
:101BE0008C420000944200009C420000A44200008D
:101BF000A03D00008041000090410000A041000095
:101C0000B0410000C0410000D0410000E0410000B0
:101C1000F04100000042000010420000743D00004E
:101C2000C4400000D8400000EC400000183C000018
:101C30004C8004400C400000244000003C40000068
:101C4000CC3E000050800440204200005440000080
:101C50006C40000084400000EC3E00000070044036
:101C60000041000014410000284100003C410000F8
:101C7000643F0000070002400600024005000240E9
:101C8000040002400F000240000002400B0002402E
:101C90000A0002400900024008000240C83D00005E
:101CA0000C3F000080B500F009F80A4800884FF6A4
:101CB000FE7108400749088001BD000072B64CF271
:101CC0002050054908804DF628100349088062B667
:101CD00070470000002005400E20054010B5114956
:101CE000114C8C4204D04FF48252204600F09AF8F6
:101CF000204600F0D3F80D490D48421A1CBF0D488C
:101D000000F080F80C480D49091A18BF00F05AF984
:101D10000B490C48421A04D0BDE810400A4800F0B4
:101D200071B810BD000000000000FF1F403A000025
:101D3000803B00001004FF1FA005FF1F302EFF1F77
:101D4000803B0000D03B00005005FF1F80B51148CC
:101D5000006850F478500F490860642000F03AF9A8
:101D60000D4908600C4800684FF47A7148430B49EC
:101D700008600A4800680A490968C1F30361491C00
:101D8000B0FBF1F0074908604FF496410320FFF7DC
:101D900027F801BD38800440242EFF1F202EFF1F8E
:101DA00044800440282EFF1F38B572B66420FEF729
:101DB000F3FF00F089FA6420FEF7EEFF0C490420DF
:101DC00008704FF0FF300B490860592000F069F8A7
:101DD00009490A4C0A4D6420086062B62846FEF79D
:101DE00035FB21684FF478424C20FEF7CBFEF5E737
:101DF000CC04FF1FA0B004407408FF1FA005FF1F04
:101E00007808FF1F62B38B0708D0521E11F8013B00
:101E100000F8013B00F024808B07F6D1830740F0E7
:101E2000208000BF103A07D330B4B1E83810103A20
:101E3000A0E83810F9D230BC530724BFB1E808102D
:101E4000A0E8081044BF51F8043B40F8043BD20717
:101E500024BF31F8022B20F8022B44BF0B7803700B
:101E60007047083A07D3B1E80810083A40F8043B35
:101E700040F804CBF7D25307E4E750F8041B61B1F4
:101E800050F8042BD30744BFA9F101039A1800238B
:101E9000091F42F8043BFAD1EFE770473D4908605B
:101EA000704738B504005C2C02DB3B48FFF74EFC62
:101EB000202094FBF0F00500002D03D0022D27D048
:101EC00013D337E00120202194FBF1F202FB1142F1
:101ED0009040324908600120202194FBF1F202FB7E
:101EE000114290402E49086024E00120202194FBFB
:101EF000F1F202FB114290402A49086001202021A2
:101F000094FBF1F202FB114290402749086011E076
:101F10000120202194FBF1F202FB11429040234961
:101F200008600120202194FBF1F202FB1142904055
:101F30001F49086031BD38B504005C2C02DB1D4828
:101F4000FFF704FC202094FBF0F00500002D03D0E7
:101F5000022D15D00AD31CE00120202194FBF1F2C0
:101F600002FB114290401449086012E00120202138
:101F700094FBF1F202FB114290401049086008E026
:101F80000120202194FBF1F202FB114290400C4908
:101F9000086031BD08ED00E0943C000080E200E004
:101FA00000E100E084E200E004E100E088E200E01B
:101FB00008E100E0583C000080E100E084E100E03E
:101FC00088E100E0002200F0C3B97047DFF800F0BC
:101FD0005105FF1F38B50400E4B2002C00F0068163
:101FE000E4B2200030281ED0322823D0602828D028
:101FF00064282DD06E2832D0782837D07D283CD068
:10200000822841D08C2846D096284BD0A02850D08A
:10201000AA2855D0B4285AD0C8285FD0E12864D067
:10202000FA2869D06FE018209F49087000209E4967
:1020300048706CE018209C49087001209A4948704B
:1020400065E01820984908701820974948705EE0AC
:102050000B20954908701A209349487057E01820C2
:10206000914908701F209049487050E013208E4914
:10207000087018208C49487049E013208A4908707C
:102080001A208949487042E01320874908701C20B3
:10209000854948703BE00E20834908701220824930
:1020A000487034E00E208049087015207E49487041
:1020B0002DE00E207C49087018207B49487026E0EE
:1020C0000E20794908701B20774948701FE00E20C8
:1020D000754908701E207449487018E00C20724938
:1020E00008701C207049487011E00B206E49087080
:1020F0001E206D4948700AE00A206B4908701F20B5
:102100006949487003E06420FFF764FFCAE00020DB
:1021100065498870E4B2332C03DA00206249C87044
:1021200017E0E4B2652C03DA01205F49C87010E0C3
:10213000E4B2972C03DA02205B49C87009E0E4B2EC
:10214000C92C03DA03205849C87002E00F20564911
:10215000C8705548C07854490871E4B21A2C03DAA3
:1021600000205149487141E0E4B2332C03DA0120E8
:102170004D4948713AE0E4B24C2C03DA02204A4956
:10218000487133E0E4B2652C03DA03204649487114
:102190002CE0E4B27E2C03DA04204349487125E0A8
:1021A000E4B2972C03DA05203F4948711EE0E4B2FF
:1021B000B02C03DA06203C49487117E0E4B2C92C80
:1021C00003DA07203849487110E0E4B2E22C03DA60
:1021D00008203549487109E0E4B2FB2C03DA0920F4
:1021E0003149487102E00F202F4948712E4840784C
:1021F000183080B2182148432B490978491C89B20C
:1022000090FBF1F00500002028490870284800687C
:1022100050F08050264908602648007850F0800031
:102220002449087098202449087024480078C00682
:10223000FBD422480078C0F38100C0B20228F8D154
:102240001948007810F01F001D49087000201D4932
:10225000087015484379144802791348C178124828
:102260008078FFF7B3FE1048407810F01F0050F060
:10227000400014490870114800788006FBD50F48CB
:1022800000784006FBD50C48007810F03F000A4962
:1022900008700A480078C0F38100C0B20328F8D162
:1022A0002800C0B232BD00BFC404FF1F0140064079
:1022B0003480044008C00740004006400640064005
:1022C000044006400540064080B500230122062157
:1022D0000420FEF7FFFC0020FEF704F94FF6E07043
:1022E000FEF736FC00F0B1F81748006800EB8001FB
:1022F000002000F02BF90023012203210320FEF728
:10230000E9FC01231A4611460320FEF7E3FC0023F3
:102310004FF47A720421184600F050F9BDE80050DD
:102320004FF49663C8220021012000F047B910B590
:10233000064C216841F040012160FEF72DFD206828
:1023400020F04000206010BD282EFF1F00F10F403C
:10235000401810F0030308D0C91A1FD3DB0748BF89
:1023600000F8012D28BF20F8022D130030B41446C8
:102370001546103928BF20E93C00FAD8490728BF84
:1023800020E90C0048BF40F8042D890028BF20F840
:10239000022D48BF00F8012D30BC7047C91818BF86
:1023A00000F8012DCB0728BF00F8012D7047000071
:1023B000E0B50123002200210220FEF78BFC01235F
:1023C000002201210220FEF785FC012300220221C8
:1023D0000220FEF77FFC0123002203210220FEF7EA
:1023E00079FC0123002204210220FEF773FC012363
:1023F000002205210220FEF76DFC012300220621A8
:102400000220FEF767FC0123002207210220FEF7CD
:1024100061FC022002904FF41650019000200090C1
:102420004C233E4A3E49002000F0B4FA3D494C207E
:1024300000F042FC0020FFF734FD3B494A2000F049
:102440003BFC5920FFF777FD07BD80B500F006F88B
:102450000028FBD0FFF7ACFF002002BD10B582B012
:10246000002400208DF8000000F05FFC322000F016
:1024700055FE8021122000F0E9FD002808D1641CDF
:10248000A4B2142CF5D12948FFF760F9002043E0ED
:10249000322000F043FE0B22012100A800F0FAFDDB
:1024A000002804D12248FFF751F9002034E09DF8BC
:1024B00000102048FFF74AF91F4801781F48FFF72E
:1024C00045F99DF80000212825D1002004001A4874
:1024D0000078A4B280B2844218D21948A4B210EB9A
:1024E000440041781648A4B210F8140080B200F0FD
:1024F000ADFD002808D11248A4B210F814101148FC
:10250000FFF724F9002007E0641CE0E70E48FFF71E
:102510001DF9012000E0002016BD00007808FF1F13
:1025200090F00F4003000100130009009C400000E0
:1025300050410000183E00003405FF1F4C3E0000D3
:10254000D004FF1FC43F00006C3E000038B50400FB
:102550000D001748006850F4000015490860154840
:10256000006880088000134908601348E4B2210124
:102570000D501148E4B210EB0410C06850F0010097
:102580000D49E4B211EB0411C8600B48E4B210EB42
:102590000410806850F003000749E4B211EB041105
:1025A0008860E4B214F14400FFF77BFC31BD000009
:1025B0003C80044000700340007103402DE9F84F57
:1025C00004000D0016001F00DFF8800300684FF4C0
:1025D0007A7148435FEA5008E4B2002C0DD0E4B2AF
:1025E000012C02D0E4B2022C02D1EDB2022D04DBA8
:1025F0003821DFF85C03FEF795FD5FEA5800B04232
:1026000004D23921DFF84803FEF78CFD5FEA184059
:10261000B0FBF6F08146002082461FFA89F959FA8C
:102620000AF0012802DB1AF1010AF6E7B6F57A7F13
:1026300001D21AF1010A38FA0AF0B0FBF6F081462D
:102640001FFA89F919F1010000FB07F04FF47A61D4
:10265000B0FBF1F08346E4B2002C05D0022C00F070
:10266000B880C0F08A80E0E0DFF8E802006850F04F
:102670008070DFF8E0120860EDB2002D0BD0022D63
:1026800025D016D3042D3ED02FD3062D57D048D3B6
:10269000072D62D06FE0DFF8C002006850F40060E0
:1026A000DFF8B41208604FF48060DFF8B012086001
:1026B00062E0DFF8A402006850F40070DFF89812BE
:1026C00008604FF44070DFF89812086054E0DFF8BB
:1026D0008802006850F40070DFF87C1208604FF444
:1026E0004070DFF88012086046E0DFF86C02006896
:1026F00050F40060DFF8601208604FF48060DFF88B
:102700006812086038E0DFF85002006850F480502A
:10271000DFF8441208604FF48060DFF85012086060
:102720002AE0DFF83402006850F48050DFF8281205
:1027300008604FF48060DFF8381208601CE0DFF8B2
:102740001802006850F48050DFF80C1208604FF453
:102750008060DFF8201208600EE0DFF8FC010068FE
:1027600050F48050DFF8F01108604FF48060DFF81B
:102770000812086000E0ACE057E0DFF8D80100681C
:1027800050F00070DFF8CC110860EDB2002D02D0DF
:10279000012D0ED01BE0DFF8C001006850F400707E
:1027A000DFF8B41108604FF44070DFF8D011086012
:1027B0000EE0DFF8A401006850F40070DFF8981113
:1027C00008604FF44070DFF8B811086000E080E066
:1027D0002BE0DFF8B001006850F08070DFF8A41142
:1027E0000860EDB2002D02D0012D0ED01BE0DFF805
:1027F0006801006850F40070DFF85C1108604FF465
:102800004070DFF8841108600EE0DFF84C010068CA
:1028100050F40070DFF8401108604FF44070DFF8AA
:102820006C11086000E054E0FFE7DFF86401E4B2F7
:1028300050F82400EDB210EBC500DFF85411E4B2FB
:1028400051F82410EDB211EBC501C96831F0040153
:10285000C160DFF83C01E4B250F82400EDB210EBA7
:10286000C5002821C1605FFA8AFA1AF0070050F00B
:102870002800DFF81C11E4B251F824100860002091
:10288000DFF80C11E4B251F82410C8641FFA89F97A
:10289000DFF8FC00E4B250F82400C0F808900020F3
:1028A000DFF8EC10E4B251F82410C864DFF8E0005F
:1028B000E4B250F82400EDB210EBC5001FFA8BFB18
:1028C000C0F810B00020DFF8C810E4B251F82410AE
:1028D0004860BDE8F18F2DE9F04104000D001600BD
:1028E000E4B2002C0ED0E4B2012C02D0E4B2022CEF
:1028F00002D1EDB2022D05DB40F25D11DFF8500090
:10290000FEF710FCB6F57A6F05D94FF4AF71DFF81A
:102910004000FEF707FCDFF87800E4B250F824002E
:102920008068804618F1010000FB06F04FF47A61E0
:10293000B0FBF1F00700DFF85800E4B250F82400D3
:10294000EDB210EBC5000761BDE8F081282EFF1F36
:10295000043D00003C8004403880044004B0044042
:10296000109004401490044010B0044010C0044083
:1029700014C0044018C004401CC00440209004400F
:102980002490044030800440289004402C9004405F
:102990002004FF1F2DE9F44F82B006000F00984677
:1029A0000C9CDDF834900E9DE4B2002C07D1DFF8CA
:1029B000D402874203D3DFF8D002B84222D2E4B275
:1029C000012C0BD1DFF8BC02874207D3DFF8BC0231
:1029D000B84203D317F00300032813D1E4B2022C4A
:1029E0000BD1DFF8A002874207D3DFF8A402B84278
:1029F00003D317F00300002804D03121DFF894023C
:102A0000FEF790FBE4B2002C02D15FF0010B0DE069
:102A1000E4B2012C02D15FF0020B07E0E4B2022C19
:102A200002D15FF0040B01E05FF0100BDFF86802E9
:102A3000006850F00200DFF860120860DFF85C0206
:102A4000006850F00200DFF854120860DFF850020E
:102A5000F6B271010F500298F6B2710101F1804196
:102A600011F5104108610020F6B2710101F18041B9
:102A700011F5104188805FFA8BFBF6B2700100F10E
:102A8000804010F51040A0F814B0E4B2200210F419
:102A9000E060E4B214F007010843F6B2710101F1FD
:102AA000804111F51041C88048464004400CF6B200
:102AB000710101F1804111F51041C8824846C005FD
:102AC000C00DF6B2710101F1804111F51041C883CA
:102AD000DFF8D001006830F08000DFF8C81108602E
:102AE0005FFA8BFBF6B2700100F1804010F51040E8
:102AF000C0F808B00020F6B2710101F1804111F573
:102B00001041C860A80602D4D9F1000000E00020FE
:102B1000F6B2710101F1804111F5104188610A207E
:102B2000F6B2710101F1804111F5104188835FFA1D
:102B300088F85FEA5810313050F08000DFF86811F3
:102B4000F6B27054DFF8640100684FF400715FFA68
:102B500088F85FEA58129140084354490860544885
:102B60005FFA88F85FEA681150F8210050495FFA6F
:102B700088F85FEA681251F822104969012218F0BA
:102B80001F039A40914341614A485FFA88F85FEA1F
:102B9000681150F821005FFA88F818F01F01EDB2B3
:102BA00015F00302EDB2AB09DBB253EA024252F474
:102BB000807240F821205FFA88F8B8F1000F01D048
:102BC000012000E000203A495FFA88F85FEA6812C5
:102BD00051F82210364A5FFA88F85FEA681352F813
:102BE00023205269012313FA00F032EA0000486101
:102BF0002E4800684FF40071BA0912F007029140A4
:102C000008432A490860E4B2002C03D0022C07D004
:102C100003D308E00020387109E00020B88006E006
:102C20000020786003E076211A48FEF77BFA38002E
:102C3000103810F03F008DF800009DF800005FFA9A
:102C40008BFB5FEACB0151FA80F08DF801009DF813
:102C5000000082469DF801005FFA8AFA82450ED292
:102C60001448B90911F0070150F821005FFA8AFAF7
:102C70004FF4817140F82A101AF1010AEAE7BDE821
:102C8000F78F000010F00F4013F10F4012F10F40CA
:102C900010F10F40CC3C0000408004403C800440D8
:102CA0000090004000800040001002403880044046
:102CB0002C04FF1F4004FF1F30B4C0B2420910F0C3
:102CC0001F03104C24684FF4007595402C430D4DA4
:102CD0002C600D4CD2B254F82240DBB251F4807516
:102CE00044F82350094CD2B254F8224064690125BB
:102CF0009D40AC43054DD2B255F822506C6130BCBA
:102D0000704700BF388004404004FF1F2C04FF1FA1
:102D100001B4BDF80000002805D0BDF80000401E39
:102D2000ADF80000F5E701B0704780B5002301223F
:102D300012210120FDF7CEFF0023012216210120E0
:102D4000FDF7C8FF01BD80B5BD48006850F4802084
:102D5000BB490860BA48006850F48000B849086070
:102D60006420FFF7D5FFB748006830F48020B549EC
:102D70000860B5480068C0F38040002807D1B1481A
:102D8000006850F48020AF49086000202FE0AD4873
:102D9000006850F48020AB490860A948006830F40E
:102DA0008020A74908606420FFF7B2FFA5480068AB
:102DB00030F48020A3490860A3480068C0F3804035
:102DC000002807D09F48006850F480209D49086083
:102DD00000200CE09B48006850F48020994908606E
:102DE0009748006830F4802095490860012002BDB2
:102DF00080B59348006830F480009149086090489D
:102E0000006830F480208E4908606420FFF780FF5E
:102E10008B48006850F48000894908608848006841
:102E200050F48020864908606420FFF771FF01BDDF
:102E300080B58348006830F48000814908606420D0
:102E4000FFF766FF7E48006830F480207C49086008
:102E50006420FFF75DFF7A48006850F480007849ED
:102E600008606420FFF754FF7548006830F4800064
:102E7000734908606420FFF74BFF01BD80B57048BF
:102E8000006830F480006E4908606420FFF740FF5E
:102E90006B48006850F48020694908606420FFF79F
:102EA00037FF6748006850F4800065490860642077
:102EB000FFF72EFF6248006830F480006049086028
:102EC0006420FFF725FF01BD80B55D48006830F440
:102ED00080005B4908606420FFF71AFF58480068CB
:102EE00050F48020564908606420FFF711FF5448D1
:102EF000006850F48000524908605248006830F47D
:102F00008020504908606420FFF702FF4E480068A7
:102F1000C0F3804000280DD04A48006850F480205B
:102F2000484908604648006830F480004449086019
:102F300000200CE04348006850F4802041490860BC
:102F40003F48006830F480003D490860012002BD20
:102F500038B5040008252800451EC0B2002825D039
:102F60003748006830F48000354908606420FFF776
:102F7000CFFE200606D53248006850F48020304944
:102F8000086005E02E48006830F480202C49086075
:102F900064006420FFF7BCFE2948006850F48000FC
:102FA000274908606420FFF7B3FED4E7244800688F
:102FB00030F480002249086031BD38B5082400256E
:102FC0001F48006850F480201D4908606420FFF706
:102FD0009FFE1C48006830F480201A4908602000D9
:102FE000441EC0B200281BD06D001548006830F4A4
:102FF0008000134908606420FFF78AFE10480068CB
:1030000050F480000E4908606420FFF781FE0E48EE
:103010000068C0F380400028E1D055F00105DEE7EC
:103020000848006850F48020064908600448006899
:1030300030F4800002490860EDB2280032BD000083
:1030400040F00F4054F00F4050F00F4038B50400EE
:103050000D00FFF778FE002801D1002019E0422082
:10306000FFF776FFFFF730FF002803D1FFF7C0FE20
:1030700000200EE02000C0B2FFF76AFFFFF724FF38
:103080002800C0B2FFF764FFFFF71EFFFFF7B0FE96
:10309000012032BD70B504000D001600FFF753FE8D
:1030A000002801D1002037E04220FFF751FFFFF751
:1030B0000BFF002803D1FFF79BFE00202CE030001F
:1030C000C0B2FFF745FFFFF7FFFEFFF791FEFFF7E6
:1030D0003AFE002801D100201EE04320FFF738FF10
:1030E000FFF7F2FE002803D1FFF782FE002013E075
:1030F000ADB2002D0DD0FFF760FF2070ADB2012DF5
:1031000002D1FFF7BBFE01E0FFF792FE641C6D1ECB
:10311000EEE7FFF76DFE012070BD00000C49096865
:1031200051F001010A4A11600B49086005210B4A60
:1031300011600121074A1160064909680906FBD59B
:103140000449096849084900024A116070470000B3
:10315000388004400000044008000440040004409B
:1031600010B58948894C016841F00101016020686F
:10317000401C20606068401C6060A068401C032800
:10318000A06005D100F05EF900F01EF90020A060FB
:103190002068022806D1DC2204210020FFF79BFBD7
:1031A000002020606068042809D100F014F97848F4
:1031B000026800210120FFF78EFB0020606010BD37
:1031C00070B50320FDF7E4FE002800F090802B2866
:1031D0006ED02D2871D061280ED0622816D06328B9
:1031E0001DD064282BD0652839D066283ED06728AA
:1031F00042D068284ED074E0664ED6F83C114FF0AD
:103200007E5000F0BDF9C6F83C0163E0614E6248B3
:10321000D6F83C1100F0B4F9C6F83C015AE05D4E16
:103220005E4C5F4D06F59E76B06800F0EBF92246E5
:103230002B4600F00FFA00F081FAB0604AE0554EDC
:10324000564C584D06F59E76B06800F0DBF92246E4
:103250002B4600F0FFF900F071FAB0603AE0524EF0
:10326000316B4FF07E5000F08BF932E04E4E4A4801
:10327000316B00F085F92CE04B4E484C706B484D9B
:1032800000F0C0F922462B4600F0E4F900F056FAAF
:1032900070631FE0444E414C706B424D00F0B2F938
:1032A00022462B4600F0D6F900F048FA706311E090
:1032B000384E3A4C306B3A4D03E0364E374C306B5B
:1032C000384D00F09FF922462B4600F0C3F900F07C
:1032D00035FA306301460320FDF782FC0A20FFF730
:1032E00026F8BDE870400A210320FDF75EBE70BDE0
:1032F00030B52E482E4B83B04FF0FF3101600022D5
:103300001A702C4C2278042A1BD1022002904FF410
:10331000165001900020284D284900904C232A4641
:10332000FFF738FB2648016841F00101016025489C
:1033300005600320207003B0BDE830405920FEF73F
:10334000FABD04222270016003B0BDE8304059206C
:10335000FEF7A7BD80B51A48016849084900016019
:10336000816941F00101816101211248017004214C
:1033700001704FF0FF300D4908605920FEF791FDB4
:103380000B490120087001BD0C7103401007FF1F9D
:10339000C405FF1F1C07FF1F000080BF9A99999961
:1033A0009999B93F9999B9BF6C04FF1FA0B0044027
:1033B0002C2EFF1FCC04FF1F7808FF1F90F00F403A
:1033C0000C80004010900040624863490068C0F1E2
:1033D000A00008607047F8B55F486049046860481D
:1033E0000E68604F0460604805686048056046608C
:1033F000204600F0EBF92946FDF706FE0546386841
:10340000201A00F0E3F93146FDF7FEFDFDF768FEF6
:1034100000F0DCF9294600F0B3F8FDF761FE5449ED
:103420003C600860C0F59660B0F5487FD8BF4FF4A7
:10343000487004DDB0F5FA6FA8BF4FF4FA604D494B
:103440000860F1BD70B54C4D00242E4601E0641CAF
:103450002836304600F01EF870B106F1280000F062
:1034600019F848B106F1500000F014F820B106F147
:10347000780000F00FF808B9ED2CE8DBED2CAFBFB9
:10348000A02004EB840005EBC00000F003F83149F4
:10349000086070BDF0B4394B002100221D4628247D
:1034A00000260778C6F1070C27FA0CF707F001078A
:1034B00005F8017B761C0778C6F1070C27FA0CF794
:1034C000761C07F00107082E05F8017BE9DB401C9C
:1034D000641EE5D1987838B9587828B9187818B9A1
:1034E0000A46D0181BE0521CD018C078002802BF32
:1034F000D0188078002806D1D0184078012804BF61
:10350000D05C012802D0B2F5A07FECDB911CB1F5B4
:10351000A07FE5DBF0BC00207047521C401CC37844
:10352000012B04BF8378012B05D14378002B04BF06
:103530000378002B02D0B2F5A07FEEDB901CB0F533
:10354000A07FF0BCC8BF4FF4A070081800EBD0708B
:1035500040107047A005FF1FA405FF1F1804FF1FA0
:10356000BC05FF1FB805FF1F1004FF1FC805FF1F84
:10357000C005FF1FC405FF1F7808FF1FD005FF1FF0
:1035800090EA010F44BF81F0004100F037B900BF5D
:10359000421A3CBF801A89184FF0004CC0F3C75242
:1035A000FF2A24D0C1F3C75313B3D21AD2F119039F
:1035B00027DD4CEA01214CFA03F321EA0303D14051
:1035C000C20D4CEA0020401834BF20EA0C004CEA3F
:1035D0005000D20553EA006373EB0C0C52EB102041
:1035E000420012F1807F38BF7047C00DC0057047A0
:1035F000490212BF9A4200EB5120F8E7D2F11703BB
:10360000D9D570475FF0FF0C1CEAD05114BF61455B
:1036100006E0C110400721F0E04101F16051704720
:1036200079B900F0004100020AD0B0FA80FC00FA3B
:103630000CF001F16051A1EB0C5101EBD0214005E0
:10364000704741020CBF40F4E0016FF00001002020
:103650007047000070B44FF0004591EA030C44BF7E
:103660006B4000F037B900BF841A71EB030603D238
:10367000001BB141121973414FF4001C1CEB410FA8
:1036800034BF7CEB430443E00C0DA4EB1356352E02
:1036900050DC45EAC323DB0A45EAC121C912B6F171
:1036A00020050DDD63FA05F6EB4086EA03051242BC
:1036B00018BF45F00105C01851F100010CD213E00C
:1036C00062FA06F5F2405540F3415A40B340F340E8
:1036D0005A408018594107D349085FEA30005FEA31
:1036E000350528BF45F0010501F58011420875F147
:1036F000004250F1000041EB045170BC4FF4001C3B
:103700001CEB410F38BF70470020090D09057047B9
:103710001CEB410F10D252EA43060BD0BCEB410F19
:1037200005D80C0DAB43661E342EB5DD02E0AB436D
:103730008018594170BC704770BC70474FEAF17CEB
:10374000BCF1E04C2CBFBCF5001F11E05FEA4C0C53
:1037500034BFBCF17F5F2EE05FEA9C0C4FEA0C1C8B
:103760004FEA3C0CC10071F100414CEB50707047C6
:10377000C90241EA5051C00218BF41F0010141F0B5
:1037800000414FEA6C50C0F10900212810D240EAF4
:10379000CC7CCCF1200C11FA0CF070F10040CCF193
:1037A000200C21FA0CF00CF0004C40EB0C007047A0
:1037B0004FEACC707047490011F5001F04D84FEA5A
:1037C000CC10FF30C0057047C8177047002840F183
:1037D0000780F446404200F003F850F00040604794
:1037E0000AD0B0FA80F18840D1F19D01C9050206E6
:1037F00072F1004241EB102070470000431A4FF075
:1038000000423EBF5340C01AC91800BFD3095FEA47
:10381000D05C13EB400F34BFB3EB410F40E07CEBC7
:10382000D1530CD342EA012122D8D1EB402009D355
:10383000400A28BF5FEA500140EBCC507047401A65
:1038400015D04002B0FA80F2521C9040400A4FEA74
:103850003C23B3EB026384BF00EB730007E040F44A
:1038600000001A16DB07C2F10102D040184370476E
:10387000182BFCDC31FA03F202FA03F3591A38BFB1
:1038800042F00102D2EB40203CBF4000ACF1010C01
:103890005FEACC5CC20572F100414CEB50207047EE
:1038A00013EB400F0FD24B0009D0ACEBD153022BDE
:1038B00003DB4902172BDDDD70479143401A4300BB
:1038C000D5D10020704713EB410FD0D36FF000002B
:1038D00070470000841A71EB030604D26E40001B8F
:1038E000B141121973414FF4001C1CEB410F34BF5E
:1038F0007CEB430684E00C0DA4EB1356362E7DDCE6
:10390000012E43DC45EAC32343EA525312BFD202DD
:1039100092025B08240545EAC12141EA5051D2EBED
:10392000C020994125D407D1B0FA80F610FA06F1EB
:1039300064D00020203608E0B1FA81F6B140C6F12B
:10394000200220FA02F21143B0404FEAF474B4EBC3
:10395000465434F001064FEA74040AD8D6F500162E
:10396000760D04F00044F04061FA06F25040F14058
:103970004840C00A40EA415021F0004128BF5FEAB8
:10398000500550F1000044EBD12137E045EAC32354
:10399000DB0A45EAC121C90AB6F120050EDD42EA7B
:1039A0000242120CC5F1200603FA06F6EB4042EA89
:1039B00006056D42984161F100010DE062FA06F5DD
:1039C000F240554063FA06FC82EA0C02F3405A408A
:1039D0006D42904161EB030111F4801F05D1641E1B
:1039E000620502D06D004041494121F48011430835
:1039F00075F1004350F1000041EB045170BC704779
:103A00001CEB410F15D223F0004352EA43060BD0C2
:103A10004FEA4C0CBCEB410F04D80C0D661E342E43
:103A2000B7DDEBE7801A994150EA410608BF002153
:103A3000E4E708BF1CEB430F28BF6FF00001DDE790
:103A400000008040000000000000804100000000F5
:103A5000008003400090034000800B4000F00F40C6
:103A600040F00F4080F00F40C0F00F4000F10F40D9
:103A70000090044000A0044000B0044000C0044096
:103A800000D0044000000000000000000000000022
:103A90000000000000000000000000000000000026
:103AA0000000000000000000000000000000000016
:103AB0000000000000000000000000000000000006
:103AC00000000000000000000000000000000000F6
:103AD00000000000000000000000000000000000E6
:103AE00000000101010000000000000000000000D3
:103AF000000000000B1F0000000900000100000092
:103B00000DC1110009030CD01240173F18501903C2
:103B10001A783200A00A63E0ACFF650C660067000B
:103B200029502C782A007E0C7F16802A814E8261D3
:103B3000836F847B8586868E879788A489AF8AC5A4
:103B40008BD78CE88D204A00491347084B144C173B
:103B5000460522992303A6049B009C1EAB069E11DA
:103B60009F0200003100000000A0064000B00640A7
:103B700000C0064000D0064000A00E4000B00E403D
:103B8000F0B4114E366834000F4E366856F47F0696
:103B90000D4F3E600E0616F0706656EA0076170569
:103BA00017F470073E431F0417F470273E43074F76
:103BB0003E6000263500EDB29D4201D26D1CFAE751
:103BC000014E3460F0BC704700F001404480044076
:103BD000C4DABACBC6B5C2CAA3BA25644D487A09BD
:103BE000D7DCCFDFC6B5C2CA20A3BA25644D487A58
:103BF0000A666C6578C6B5C2CAA3BA25644D487A10
:103C00002009666C617368C6B5C2CAA3BA25644D43
:103C1000487A0A0A000000000A5468697320766531
:103C20007273696F6E206F6620736F66747761724E
:103C30006520646F65736E2774207265636F676EAD
:103C4000697A6520746865207265766973696F6E3C
:103C500020636F64652E00000A4552522120496E90
:103C600076616C6964204952512076616C756520DB
:103C700070617373656420746F2064697361626C32
:103C800065206972712066756E6374696F6E210AB2
:103C9000000000000A4552522120496E76616C698D
:103CA00064204952512076616C7565207061737390
:103CB000656420746F20656E61626C652069727145
:103CC0002066756E6374696F6E210A00453A5CCF99
:103CD000EEC4BF5CD7D4B8FACBE6D0D0C0EECFE408
:103CE0005CB4FAC2EB202D20BAF35C7372635C649F
:103CF0007269766572735C646D615C646D612E637C
:103D000000000000453A5CCFEEC4BF5CD7D4B8FADF
:103D1000CBE6D0D0C0EECFE45CB4FAC2EB202D20CD
:103D2000BAF35C7372635C647269766572735C4645
:103D3000544D5C46544D2E6300000000453A5CCF64
:103D4000EEC4BF5CD7D4B8FACBE6D0D0C0EECFE497
:103D50005CB4FAC2EB202D20BAF35C7372635C642E
:103D60007269766572735C6770696F5C6770696FA2
:103D70002E6300000A556E7265636F676E697A651F
:103D800064204B696E65746973207061636B616751
:103D90006520636F64652E20202020202000000015
:103DA0000A556E7265636F676E697A6564204B6948
:103DB0006E657469732066616D696C7920646576DF
:103DC0006963652E0A000000466C617368207061AB
:103DD00072616D657465722076657273696F6E20AD
:103DE00025642E25642E25642E25640A000000001B
:103DF00010B5074979441831064C7C44163404E068
:103E00000A68081D511888470146A142F8D110BD23
:103E10002C000000380000004765742049442073DE
:103E2000756363657373A3AC53454E534F5220497A
:103E30004420697320307825780000003FE0FFFFC0
:103E400090280000A005FF1F00000000436F6E6671
:103E50006967205265676973746572204E756D627B
:103E60006572206973202564200000004F563737A3
:103E7000323520526567697374657220436F6E66D0
:103E80006967205375636365737321000A0A090922
:103E9000D2B0BBF06B696E65746973BACBD0C4B035
:103EA000E5B2E2CAD4B3CCD0F20A00000AD2B0BB69
:103EB000F04B696E65746973BFAAB7A2B0E5C6F42A
:103EC000B6AFB7BDCABDA3BA00000000455252212B
:103ED0002120556E646566696E656420502D666CA0
:103EE0006173682073697A650A00000045525221A7
:103EF0002120556E646566696E656420466C657840
:103F00004E564D2073697A650A000000466C617355
:103F1000682076657273696F6E2049442025642E8F
:103F200025642E25642E25640A000000436F726507
:103F3000204C6F636B7570204576656E74205265FA
:103F40007365740A000000004C6F772D766F6C74F7
:103F50006167652044657465637420526573657498
:103F60000A000000455252212120556E64656669A1
:103F70006E65642052414D2073697A650A0A00001B
:103F800000F00BF8002801D0FFF732FF0020C046F8
:103F9000C046FDF709FF00F002F80120704700F06D
:103FA00001B800000746384600F002F8FBE70000C1
:103FB00080B5C046C046024A11001820ABBEFBE7E0
:103FC00026000200BEAFB8E63AD0B4BCC4B4E6C620
:103FD000F730782578CAA7B0DC0000005761746319
:103FE00068646F6728434F50292052657365740ACF
:103FF000000000004C6F7373206F6620436C6F638A
:104000006B2052657365740A00000000313238205D
:104010006B4279746573206F6620502D666C6173F6
:1040200068090000323536206B4279746573206F61
:104030006620502D666C61736809000035313220AE
:104040006B4279746573206F6620502D666C6173C6
:104050006809000030206B4279746573206F662018
:10406000466C65784E564D0A00000000313238200B
:104070006B4279746573206F6620466C65784E5686
:104080004D0A0000323536206B4279746573206F1B
:104090006620466C65784E564D0A0000BEAFB8E605
:1040A0003A53434342D0B4CAFDBEDDB4EDCEF30073
:1040B00045787465726E616C2050696E205265732C
:1040C00065740A0053696C69636F6E2072657620AF
:1040D000312E302020200A0053696C69636F6E20F6
:1040E00072657620312E3120200A000053696C69F8
:1040F000636F6E2072657620312E3220200A000018
:104100003332206B4279746573206F662052414DC3
:104110000A0A00003634206B4279746573206F669A
:104120002052414D0A0A00003936206B42797465ED
:1041300073206F662052414D0A0A00003132382048
:104140006B4279746573206F662052414D0A0A00F4
:10415000BEAFB8E63AB6C1C8A14944CAA7B0DC00B0
:10416000536F6674776172652052657365740A00D7
:10417000506F7765722D6F6E2052657365740A00FB
:10418000333270696E2020202020202000000000A3
:10419000343870696E20202020202020000000008C
:1041A000363470696E20202020202020000000007E
:1041B000383070696E202020202020200000000070
:1041C000383170696E20202020202020000000005F
:1041D00031303070696E2020202020200000000047
:1041E00031303470696E2020202020200000000033
:1041F00031343470696E202020202020000000001F
:1042000031393670696E2020202020200000000007
:1042100032353670696E20202020202000000000FA
:10422000502D666C617368206F6E6C790A00000017
:104230004A5441472052657365740A004C4C5755E7
:104240002052657365740A00666C617368C6F4B6C3
:10425000AF0A00005352414DC6F4B6AF0A00000049
:10426000C046C046C046C046FFF78AFE0A4B313002
:104270002D0000000A4B32302D0000000A4B333075
:104280002D0000000A4B34302D0000000A4B363060
:104290002D0000000A4B37302D0000000A4B35304E
:1042A0002D0000000A4B35332D000000014603208D
:0442B000FCF77BBEDE
:040000050000426154
:00000001FF
